:100000000C9404280C9435280C9435280C9435282D
:100010000C9435280C9435280C9435280C943528EC
:100020000C9435280C9435280C9435280C943528DC
:100030000C9435280C9435280C9435280C943528CC
:100040000C9435280C941AE80C9435280C94352817
:100050000C9435280C9435280C94D2DE0D940B4A60
:100060000C9435280C941A6C0C94106C0C94352854
:100070000C9435280C9435280C9435280C9435288C
:100080000C94D6380C9435280C9435280C943528CB
:100090000C9435280C9435280C9435280C9435286C
:1000A0000C9435280C9435280C94A8380C943528D9
:1000B0000C9435280C9435280C9435280C947A38F7
:1000C0000C9435280C9435280C9435280C9435283C
:1000D0000C9435280C9435280C9435280C9435282C
:1000E0000C943528084AD73B3BCE016E84BCBFFD3B
:1000F000C12F3D6C74319ABD56833DDA3D00C77FF8
:1001000011BED9E4BB4C3E916BAAAABE0000008090
:100110003F05A84CCDB2D44EB93836A9020C50B91F
:10012000918688083CA6AAAA2ABE000000803F004B
:100130000D94B7480D944E2B0D940C490D948E5A86
:100140000D9447620D94A5480D947C2B0D94CB48DB
:100150000D944F2B0D94C1480D9472480D9489480D
:100160000D94202B0D947A480D9451180D942D2B3D
:100170000D94FE2B0D94E4480D94232B0D941C2B11
:100180000D943B2B0D940F0F0D9402490D94452BAC
:100190000D94332B0D94ED2A0D94DA480D94142B05
:1001A0000D94AD480D94372B0D94182B0D94EE2A19
:1001B0000D94EE480D946A160D9493480D94292BD6
:1001C0000D94AA0B0D949D480D947F480D944E0BF1
:1001D0000D94F8480D946D0B0D94412B0D94492B03
:1001E0000D940E2B0D94532B4E414E494E495459AC
:1001F000494E46CDCCCC3D0AD7233C17B7D13877F2
:10020000CC2B329595E6241FB14F0A000020410007
:1002100000C84200401C4620BCBE4CCA1B0E5AAE51
:10022000C59D7400407A10F35A00A0724E18090060
:1002300010A5D4E80000E87648170000E40B54024B
:100240000000CA9A3B000000E1F505000080969886
:1002500000000040420F000000A0860100000010D6
:100260002700000000E80300000000640000000018
:10027000000A00000000000100000000002C76D8F9
:1002800088DC674F0823DFC1DFAE59E1B1B796E5DF
:10029000E3E453C63AE651997696E8E6C28426EB43
:1002A000898C9B62ED407C6FFCEFBC9C9F40F2BA56
:1002B000A56FA5F490055A2AF75C936B6CF9676DEE
:1002C000C11BFCE0E40D47FEF520E6B500D0ED9043
:1002D0002E0300943577050080841E080000204E10
:1002E0000A000000C80C333333330F986E128311A9
:1002F00041EF8D2114893BE65516CFFEE6DB18D180
:10030000844B381BF77C1D901DA4BBE42420328451
:10031000725E228100C9F124ECA1E53D275A5F53AA
:10032000544F505F50494E005A5F535445505F50F0
:10033000494E005A5F4D494E5F50494E005A5F4545
:100340004E41424C455F50494E005A5F4449525F0E
:1003500050494E005A5F43535F50494E00595F5316
:10036000544F505F50494E00595F535445505F50B1
:10037000494E00595F4D494E5F50494E00595F4507
:100380004E41424C455F50494E00595F4449525FCF
:1003900050494E00595F43535F50494E00585F53D8
:1003A000544F505F50494E00585F535445505F5072
:1003B000494E00585F4D494E5F50494E00585F45C9
:1003C0004E41424C455F50494E00585F4449525F90
:1003D00050494E00585F43535F50494E00535549B2
:1003E000434944455F50494E0053535F50494E00C6
:1003F000534552564F335F50494E00534552564F66
:10040000325F50494E00534552564F315F50494E6E
:1004100000534552564F305F50494E00534453539A
:100420000053445F4445544543545F50494E005384
:10043000434B5F50494E0052414D50535F44395F2A
:1004400050494E0052414D50535F44385F50494E21
:100450000052414D50535F4431305F50494E004D82
:100460004F53495F50494E004D4F534645545F44EA
:100470005F50494E004D49534F5F50494E004D412A
:1004800058363637355F53535F50494E004C45441C
:100490005F50494E004C43445F50494E535F5253A6
:1004A000004C43445F50494E535F454E41424C45DA
:1004B000004C43445F50494E535F4437004C434423
:1004C0005F50494E535F4436004C43445F50494EA1
:1004D000535F4435004C43445F50494E535F4434AE
:1004E000004B494C4C5F50494E00484541544552E1
:1004F0005F4245445F50494E004845415445525F74
:10050000305F50494E0046494C5F52554E4F55544E
:10051000325F50494E0046494C5F52554E4F55543C
:100520005F50494E0046414E315F50494E004641B2
:100530004E5F50494E0045315F535445505F50491E
:100540004E0045315F454E41424C455F50494E009B
:1005500045315F4449525F50494E0045315F435336
:100560005F50494E0045305F535445505F50494EEF
:100570000045305F454E41424C455F50494E004575
:10058000305F4449525F50494E0045305F43535FEE
:1005900050494E00455F4D5558325F50494E004519
:1005A0005F4D5558315F50494E00455F4D555830AD
:1005B0005F50494E00444F474C43445F53434B0008
:1005C000444F474C43445F4D4F53490042544E5FA4
:1005D000454E430042544E5F454E320042544E5FFA
:1005E000454E31004245455045525F50494E00410D
:1005F00056525F53535F50494E004156525F53432A
:100600004B5F50494E004156525F4D4F53495F502A
:10061000494E004156525F4D49534F5F50494E007D
:1006200054454D505F4245445F50494E0054454D3E
:10063000505F315F50494E0054454D505F305F5020
:10064000494E0046494C57494454485F50494E0072
:100650005458440052584400434F4D4D554E494361
:100660004154494F4E0044525952554E0045525242
:100670004F525300494E464F004543484F004D38B6
:10068000373620526573706F6E64696E6720505202
:100690004F4D50545F00554E4B4E4F574E205354C4
:1006A0004154450047434F44455F494E464F004C37
:1006B00043445F50415553455F524553554D4500A6
:1006C00046494C414D454E545F52554E4F55545F2F
:1006D000434F4E54494E55450046494C414D454EB9
:1006E000545F52554E4F555400436F6E74696E758A
:1006F000650044697361626C6552756E6F75740054
:100700005075726765204D6F726500506175736535
:1007100064004572726F722077726974696E672027
:10072000746F20454550524F4D210A00363726033D
:100730003C3D380E2E303E131A1C1808440AFF4365
:100740000809070001627573793A20706175736555
:100750006420666F7220696E7075740A006275732A
:10076000793A2070617573656420666F72207573C5
:1007700065720A00627573793A2070726F636573EF
:1007800073696E670A007061757365004D363030AD
:10079000002066696C616D656E745F72756E6F7551
:1007A00074200066696C616D656E745F72756E6F42
:1007B000757420540046696C616D656E7452756E77
:1007C0006F757420540053544F505045442E2000F0
:1007D0005072696E7465722073746F7070656420F6
:1007E00064756520746F206572726F72732E204677
:1007F000697820746865206572726F7220616E641A
:1008000020757365204D39393920746F20726573F6
:10081000746172742E202854656D706572617475F0
:1008200072652069732072657365742E2053657438
:1008300020697420616674657220726573746172D8
:1008400074696E67290A004E6F20436865636B7395
:10085000756D2077697468206C696E65206E756DA2
:100860006265722C204C617374204C696E653A206D
:10087000004E6F20436865636B73756D20776974F4
:1008800068206C696E65206E756D6265722C204CF7
:10089000617374204C696E653A2000636865636B10
:1008A00073756D206D69736D617463682C204C6184
:1008B0007374204C696E653A20004C696E65204E59
:1008C000756D626572206973206E6F74204C617360
:1008D00074204C696E65204E756D6265722B312CEB
:1008E000204C617374204C696E653A20004D3131A3
:1008F0003000776169740A004D313137004D333172
:100900000053442072656164206572726F720A0040
:10091000446F6E65207072696E74696E67206669D7
:100920006C650A004B494C4C20636175736564200B
:100930006279204B494C4C20627574746F6E2F7035
:10094000696E0A004B494C4C2063617573656420E5
:10095000627920746F6F206D75636820696E6163C2
:10096000746976652074696D65202D2063757272D7
:10097000656E7420636F6D6D616E643A2000535430
:100980004F505045442E20005072696E746572209D
:1009900073746F707065642064756520746F206572
:1009A00072726F72732E20466978207468652065B4
:1009B00072726F7220616E6420757365204D3939D3
:1009C0003920746F20726573746172742E202854FC
:1009D000656D7065726174757265206973207265EA
:1009E0007365742E20536574206974206166746584
:1009F000722072657374617274696E67290A00658A
:100A000063686F3A004572726F723A0042696C69AE
:100A10006E656172204C6576656C696E6720477201
:100A200069643A0A0053544F502063616C6C6564EA
:100A30002062656361757365206F6620424C546F58
:100A4000756368206572726F72202D2072657374F1
:100A50006172742077697468204D3939390A0053FE
:100A6000544F502063616C6C6564206265636175EE
:100A70007365206F6620424C546F75636820657201
:100A8000726F72202D2072657374617274207769A1
:100A90007468204D3939390A005072696E74696E74
:100AA00067204F626A656374002553202569002F13
:100AB0002F616374696F6E3A00627574746F6E00B3
:100AC000656E640070726F6D70745F0073686F772D
:100AD00000486F74656E6420746F6F20636F6C6480
:100AE0000A0053656E64204D31303820746F2072D7
:100AF0006573756D650A00496E7365727420666969
:100B00006C616D656E7420616E642073656E642027
:100B10004D3130380A00436F6E74696E756500524E
:100B2000656865617420446F6E6500526568656133
:100B300074696E6700526568656174004865617428
:100B4000657254696D656F75740053656E64204DF0
:100B500031303820746F2068656174206E6F7A7A46
:100B60006C650A00436F6E74696E7565004E6F7A2E
:100B70007A6C65205061726B656400706175736595
:100B800064004D3630303A20546F6F20436F6C64F0
:100B900000486F74656E6420746F6F20636F6C64BF
:100BA0000A004469736D6973730050617573650061
:100BB000726573756D6564004469736D6973730064
:100BC000526573756D696E670047323620486561FE
:100BD00074696E67204E6F7A7A6C650047323620F2
:100BE00048656174696E6720426564005761697485
:100BF000696E6720666F72206865617475702E0A71
:100C0000004669786564204C656E67746820507290
:100C1000696D6500446F6E65205072696D696E671D
:100C2000004D616E75616C207072696D696E672E22
:100C30002E2E004732362043616E63656C6564007A
:100C40004C656176696E6720473236003F537065A8
:100C500063696669656420582C5920636F6F7264FC
:100C6000696E617465206F7574206F6620626F75A0
:100C70006E64732E0A003F285229657065617420E6
:100C800076616C7565206E6F7420706C6175736928
:100C9000626C653B206D7573742062652061742001
:100CA0006C6561737420312E0A003F53706563696F
:100CB00066696564206E6F7A7A6C652074656D7004
:100CC00065726174757265206E6F7420706C6175E9
:100CD0007369626C652E0A003F53706563696669CB
:100CE00065642066696C616D656E742073697A65F0
:100CF000206E6F7420706C61757369626C652E0A6A
:100D0000003F537065636966696564207072696D40
:100D100065206C656E677468206E6F7420706C61FE
:100D2000757369626C652E0A003F5370656369666E
:100D3000696564206E6F7A7A6C652073697A6520C4
:100D40006E6F7420706C61757369626C652E0A0039
:100D50003F52657472616374696F6E204D756C7477
:100D600069706C696572206D75737420626520739B
:100D700070656369666965642E0A003F5370656338
:100D800069666965642052657472616374696F6E27
:100D9000204D756C7469706C696572206E6F74207B
:100DA000706C61757369626C652E0A003F537065E3
:100DB000636966696564206C61796572206865693C
:100DC000676874206E6F7420706C61757369626CF3
:100DD000652E0A0043292E0A003F53706563696639
:100DE000696564206265642074656D706572617404
:100DF000757265206E6F7420706C61757369626CBA
:100E000065202834302D00473236207374617274A7
:100E1000696E672E2E2E0A004F46460A0046616410
:100E200065204865696768742000426564204C65E8
:100E300076656C696E6720004661696C6564207434
:100E40006F20656E61626C6520426564204C65763A
:100E5000656C696E670A00496E76616C6964206D25
:100E60006573682E0A0050726F62696E6720506F5A
:100E7000696E740025532025692F2569002E0A000C
:100E80002F0050726F62696E67206D657368207005
:100E90006F696E742000202844525952554E290023
:100EA000473239204175746F20426564204C657665
:100EB000656C696E67003F20284C2C522C462C42F2
:100EC00029206F7574206F6620626F756E64732EB3
:100ED0000A003F2856296572626F7365206C65763B
:100EE000656C20696D706C61757369626C65202832
:100EF000302D34292E0A00426164205A2076616C1C
:100F000075650A004E6F2062696C696E65617220BA
:100F1000677269640A00446576696174696F6E007E
:100F200025533A202573005374616E646172642006
:100F3000446576696174696F6E3A20002052616E73
:100F400067653A2000204D61783A2000204D696E97
:100F50003A20004D65616E3A200046696E697368FB
:100F60006564210A002072616E67653A2000206D79
:100F700061783A2000206D696E3A2000207369671D
:100F80006D613A2000206D65616E3A20003A207A4A
:100F90003A2000206F662000205900476F696E6775
:100FA00020746F3A20580043570A00206469723A4F
:100FB0000020616E676C653A005374617274207230
:100FC00061646975733A004D343820506F696E74EE
:100FD0000025533A2025642F256400506F736974EF
:100FE000696F6E696E67207468652070726F6265E4
:100FF0002E2E2E0A003F4E756D626572206F6620A0
:101000006C65677320696E206D6F76656D656E74B3
:10101000206E6F7420706C61757369626C65202836
:10102000302D3135292E0A003F2028582C592920EF
:101030006F7574206F6620626F756E64732E0A0080
:101040003F53616D706C652073697A65206E6F74B3
:1010500020706C61757369626C652028342D3530A1
:10106000292E0A004D3438205A2D50726F626520A7
:101070005265706561746162696C69747920546548
:1010800073740A003F2856296572626F7365206C7D
:101090006576656C20696D706C61757369626C65ED
:1010A0002028302D34292E0A0020540020520041DF
:1010B0006363656C65726174696F6E3A20500050AD
:1010C000574D3A20202534640050574D3A202025B2
:1010D00034640050574D3A20202534640050574D59
:1010E0003A20202534640050574D3A20202534649E
:1010F0000050574D3A20202534640050574D3A2077
:10110000202534640050574D3A2020253464005087
:10111000574D3A20202534640050574D3A20202561
:1011200034640050574D3A20202534640050574D08
:101130003A20202534640050574D3A20202534644D
:101140000050574D3A20202534640050574D3A2026
:10115000202534640050574D3A2020253464003A4D
:10116000200020202020434F4D002020206E6F6E55
:101170002D7374616E646172642050574D206D6FE1
:10118000646500202020636F6D7061726520696E58
:101190007465727275707420656E61626C6564004E
:1011A0002020206F766572666C6F7720696E74659B
:1011B000727275707420656E61626C6564003A20AD
:1011C000002020202054494D534B00423A2000205B
:1011D0002020205443435200413A20002020202068
:1011E00054434352002020202043533A2000202023
:1011F000202057474D3A200050574D3A20202534A3
:10120000640050574D3A20202534640047004800C0
:10121000000088008A008C00B300B4000000980031
:101220009A009C00A800AA00AC0028012A012C0109
:101230002020202054494D455200440045006E00B6
:10124000800081006F00B000B1007000900091003C
:101250007100A000A100720020012101730020692B
:101260007320616C736F207469656420746F2074DF
:101270006869732070696E0054494D4552314300CE
:101280000A202E002020002020506F72743A200087
:1012900020202000202020416E616C6F6720696E45
:1012A000203D2025356C64003C756E757365642F98
:1012B000756E6B6E6F776E3E002028412532642973
:1012C0002020002533642000257350494E3A200029
:1012D0004F7574707574203D2000496E70757420D0
:1012E000203D2000416E616C6F6720696E203D20BB
:1012F00025356C640070726F7465637465642000DA
:10130000202841253264292020002533642000252F
:101310007350494E3A200054060001500601014323
:10132000063B00380643002D064500200644001306
:1013300006320106063301FA053401EF053501E4F2
:10134000052501DC051F01D4052101CC052301C0C1
:10135000053301B5053401AA0528019F052A01942A
:10136000052C018A052A017F051C017105180165FC
:10137000051A015B052C015005220142051E0136AC
:101380000524012E050901250507011605020106A0
:10139000050F01F9040A01EA040801E1042901D555
:1013A000041701C9041901BD041B01B1041D01A1E9
:1013B000041101950410018D040D017E0442017594
:1013C000043201680407015F04330151040A014437
:1013D000040801370409012F043401210431011CE0
:1013E00004350111040B0106040601FB030501F09D
:1013F000030401E9033501DD030C01D4033501CAFF
:10140000033701BD032601B3030301A80336019D81
:10141000030301940331018A033D017D0338017305
:10142000030E0168033C015D030E01540328014AC9
:101430000330013D033E013303130128032E011D38
:10144000031301446F6E652E0A0066616C736500BC
:101450004641494C3A204E6F207472696767657245
:101460002064657465637465640A004641494C3ABA
:10147000204E6F69736520646574656374656420CC
:101480002D20706C656173652072652D72756E20FC
:10149000746573740A002064657465637465642EF2
:1014A0000A003D20424C546F7563682070726520BD
:1014B00056332E3120286F7220636F6D706174690E
:1014C000626C6529003D205A20536572766F20506A
:1014D000726F6265003D20424C546F756368205600
:1014E000332E310020282B2F2D20346D73293A20E4
:1014F000003A2033306D73206F72206D6F72650A71
:10150000002E2050756C7365207769647468002A1A
:101510002A20506C65617365207472696767657213
:101520002070726F62652077697468696E2033304D
:1015300020736563202A2A0A004641494C3A20421A
:101540004C544F55434820656E61626C6564202D94
:101550002053657420757020746869732064657603
:10156000696365206173206120536572766F205036
:10157000726F6265207769746820494E56455254EF
:10158000494E472073657420746F20277472756507
:10159000272E0A0020204445504C4F5945442073C3
:1015A000746174653A204C4F5720286C6F676963EB
:1015B0002030290020204445504C4F594544207389
:1015C000746174653A204849474820286C6F676900
:1015D00063203129003D204D656368616E69636158
:1015E0006C205377697463682064657465637465FF
:1015F000640A005741524E494E473A20494E5645DB
:101600005254494E472073657474696E6720707236
:101610006F6261626C79206261636B77617264737F
:101620002E0A002E204465706C6F7920262073747A
:101630006F7720342074696D65730A003D20424C39
:10164000546F75636820436C617373696320312E36
:10165000322C20312E332C20536D61727420312EA8
:10166000302C20322E302C20322E322C20332E30B3
:101670002C20332E312064657465637465642E0AF2
:10168000002E20436865636B20666F7220424C54C5
:101690004F5543480A002E205A5F4D494E5F454E34
:1016A0004453544F505F494E56455254494E473A61
:1016B00020002E2050726F6265205A5F4D494E5FA8
:1016C00050494E3A20002C2073746F7720616E676A
:1016D0006C653A202020002C206465706C6F7920A6
:1016E000616E676C653A2000536572766F20707288
:1016F0006F626520746573740A2E207573696E6756
:1017000020696E6465783A202000436F6E74696EBC
:101710007565004D343320576169742043616C6CEA
:101720006564005761746368696E672070696E73E1
:101730000A0064697300656E0061626C65640A008A
:10174000656E6473746F70206D6F6E69746F722054
:1017500000205A0020590020580020204D61783A7E
:101760002000200020204D696E3A2000536F6674DF
:1017700020656E6473746F70733A200020496E7632
:10178000616C6964206578747275646572200047C5
:10179000322F47332062616420706172616D65741D
:1017A0006572730A00536C6565702E2E2E005A20E8
:1017B00050726F62652050617374204265640A0044
:1017C0005A2050726F6265205061737420426564C4
:1017D00000486F6D652058592066697273740A005D
:1017E000486F6D65205859204669727374004D31F9
:1017F00031372050726F6265206661696C65642EB6
:101800000A4732380A0070726F62655F72657769E5
:101810007065004469736D697373004732392052F3
:1018200065747279696E670050726F62696E6720C5
:101830004661696C6564004D313137204265642032
:101840006C6576656C696E67206661696C65642E8F
:101850000A4730205A31300A4D333030205032356B
:1018600020533838300A4D33303020503530205333
:10187000300A4D3330302050323520533838300A5A
:101880004D333030205035302053300A4D33303016
:101890002050323520533838300A4D333030205004
:1018A00035302053300A47342053310070726F6254
:1018B000655F6661696C6564004D31313720426552
:1018C00064206C6576656C696E6720646F6E652E4A
:1018D00000205A3A200020593A20004265642058DE
:1018E0003A20004D65736820706F696E74206361E3
:1018F0006E6E6F74206265207265736F6C766564BE
:101900000A004E6F204D6F76652E00456E6420668E
:10191000696C65206C6973740A00426567696E20A2
:1019200066696C65206C6973740A004469736D693B
:10193000737300526573756D696E67205344002898
:101940006E6F2066696C65290043757272656E74EE
:101950002066696C653A20002E0A0044656C657447
:10196000696F6E206661696C65642C2046696C65E0
:101970003A200046696C652064656C657465643A5C
:10198000005072696E742074696D653A2000436F6F
:101990006F6C696E672E2E2E0048656174696E67E4
:1019A0002E2E2E0045202553006F6B006F666600BB
:1019B000790674066D066606580644454255473A50
:1019C000004D31313320530042656420436F6F6C0A
:1019D000696E672E2E2E0042656420486561746929
:1019E0006E672E2E2E00544D334420435231305614
:1019F00032204F46462E004348414D4245525F54E7
:101A0000454D5045524154555245004D4F54494F54
:101A10004E5F4D4F44455300544845524D414C5F35
:101A200050524F54454354494F4E004155544F5224
:101A300045504F52545F53445F53544154555300E3
:101A400050524F4D50545F535550504F52540045D3
:101A50004D455247454E43595F5041525345520000
:101A6000434153455F4C494748545F4252494748B8
:101A7000544E45535300544F47474C455F4C4947DC
:101A800048545300534F4654574152455F504F57A7
:101A90004552004255494C445F50455243454E54CF
:101AA000004C4556454C494E475F44415441005A0D
:101AB0005F50524F4245004155544F4C4556454C9E
:101AC000005052494E545F4A4F420050524F4752C5
:101AD000455353004155544F5245504F52545F5453
:101AE000454D5000564F4C554D45545249430045C5
:101AF0004550524F4D0042494E4152595F46494C64
:101B0000455F5452414E5346455200534552494158
:101B10004C5F584F4E5F584F4646004649524D570E
:101B20004152455F4E414D453A4D61726C696E20A0
:101B3000322E305F44573520544D33442053534D9B
:101B400044424220534F555243455F434F44455F03
:101B500055524C3A68747470733A2F2F67697468E1
:101B600075622E636F6D2F496E73616E6974794172
:101B700075746F6D6174696F6E2F4D61726C696EF3
:101B80002F747265652F437265616C69747944774F
:101B9000696E5F322E302050524F544F434F4C5F8E
:101BA00056455253494F4E3A312E30204D4143480D
:101BB000494E455F545950453A544D3344204352A1
:101BC000313056322045585452554445525F434FA8
:101BD000554E543A3120555549443A63656465324F
:101BE0006132662D343161322D343734382D39620B
:101BF00031322D6335356336326633363766660AE1
:101C0000002F2F20004D31343520533C696E646520
:101C1000783E206F7574206F662072616E67652054
:101C200028302D31290A003F4A206F7574206F66D5
:101C30002072616E67652028302E303120746F204D
:101C4000302E33290A0020466C6F773A20005072FC
:101C50006F7465637465642050696E0A003A2000F1
:101C600020536572766F2000206F7574206F662098
:101C700072616E67650A00536572766F200020649A
:101C80003A0020693A0020703A00496E76616C692A
:101C9000642065787472756465720A0020643A0085
:101CA00020693A0020703A0064697300656E004351
:101CB000290A0061626C656420286D696E20746574
:101CC0006D702000436F6C64206578747275646574
:101CD000732061726520004F4646004F4E004669F2
:101CE0006C616D656E742072756E6F7574206469B9
:101CF0007374616E636520286D6D293A2000466912
:101D00006C616D656E742072756E6F757420004D18
:101D100065736820706F696E742063616E6E6F7496
:101D2000206265207265736F6C7665640A004D34BD
:101D3000323120696E636F727265637420706172F4
:101D4000616D657465722075736167650A004F6621
:101D50006673657473204170706C696564004572C8
:101D6000723A20546F6F206661722100546F6F20A9
:101D70006661722066726F6D207265666572656E4F
:101D8000636520706F696E740A00454550524F4D6F
:101D9000204F4B0A00554E4C4F41442046494C4180
:101DA0004D454E54004C4F41442046494C414D4511
:101DB0004E540046494C414D454E54204348414EF7
:101DC000474500446966663A200046726F6D537459
:101DD000703A00537465707065723A00556E4C65C8
:101DE00076656C3A004C6576656C65643A005261C4
:101DF000773A20202020000A4C6F676963616C3AB3
:101E0000004361703A00436F6E74696E7565004DF2
:101E1000302F3120427265616B2043616C6C6564C8
:101E200000436C69636B20746F20526573756D6538
:101E30002E2E2E0050726F6265204F666673657499
:101E4000205A0050726F6265204F66667365745A3F
:101E50003A2000290A0020746F20003F5A206F7535
:101E600074206F662072616E6765202800290A0061
:101E700020746F20003F59206F7574206F662072A8
:101E8000616E676520282D00290A0020746F2000EC
:101E90003F58206F7574206F662072616E676520F1
:101EA000282D00205A0020590050726F6265204F83
:101EB0006666736574205800220A00656E71756548
:101EC0007565696E672022002042002050006F6B0C
:101ED00000526573656E643A200043616E6E6F74E4
:101EE000206F70656E2073756264697220002569C9
:101EF000730025696D2025697300256968202569AF
:101F00006D2025697300256964202569682025698D
:101F10006D2025697300256979202569642025696C
:101F2000682025696D20256973000A5374617473F4
:101F30003A2046696C616D656E7420757365643A0C
:101F400020002C204C6F6E67657374206A6F623AB4
:101F50002000546F74616C2074696D653A200053E1
:101F6000746174733A20002C204661696C65643A90
:101F700020002C2046696E69736865643A20005021
:101F800072696E74733A200053746174733A20005E
:101F900023646566696E652044454641554C545F2F
:101FA00000626564004B6420004B6920004B702088
:101FB00000504944204175746F74756E65206669E0
:101FC0006E6973686564212050757420746865209B
:101FD0006C617374204B702C204B6920616E6420FF
:101FE0004B6420636F6E7374616E74732066726FDE
:101FF0006D2062656C6F7720696E746F20436F6E21
:1020000066696775726174696F6E2E680A0050495F
:1020100044204175746F74756E65206661696C65E6
:1020200064212074696D656F75740A005468657267
:102030006D616C2052756E617761790048656174DD
:10204000696E67206661696C65640050494420418F
:1020500075746F74756E65206661696C65642120A6
:1020600054656D706572617475726520746F6F2050
:10207000686967680A00204B643A2000204B693A7F
:102080002000204B703A20000A20436C6173736972
:102090006320504944200A00204B643A2000204B22
:1020A000693A2000204B703A20000A204E6F206FC2
:1020B00076657273686F6F740A002054753A200059
:1020C000204B753A2000206D61783A2000206D6920
:1020D0006E3A200020643A200020626961733A2041
:1020E00000504944204175746F74756E6520737497
:1020F0006172740A00504944204175746F74756EA2
:1021000065206661696C6564212054656D70657237
:10211000617475726520746F6F20686967680A0062
:10212000504944204175746F74756E65206661690D
:102130006C65642120426164206578747275646501
:1021400072206E756D6265720A004572723A207572
:1021500074663820666F6E74206E6F7420696E69C5
:102160007469616C697A65642E004572723A2075F3
:1021700074663820666F6E74206E6F7420696E69A5
:102180007469616C697A65642E004572723A2075D3
:1021900074663820666F6E74206E6F7420696E6985
:1021A0007469616C697A65642E0000FE0003FF802B
:1021B00007C7C00701E00000E00000F00000700465
:1021C00000700E00701F00703F80F00E00E00F01E5
:1021D000E007C7C003FF8000FE0000FE0003FF8091
:1021E00007C7C00F01E00E00E03F80F01F00700E37
:1021F00000700400700000700000F00000E00701B3
:10220000E007C7C003FF8000FE000E000E000E00B6
:102210000E000E000E000E000E007FC03F801F005B
:102220000E00040004000E001F003F807FC00E005F
:102230000E000E000E000E000E000E000E00FFFF3E
:10224000FF7F80FFC0FFC0FFC07F807F80FFC0FF97
:10225000C0FFC03F001E000C0050726F6265205A24
:10226000204F66667365740052756E6F75742044F6
:10227000697374206D6D004C6F6164206D6D005545
:102280006E6C6F6164206D6D0046696C2E20446930
:10229000612E004520696E206D6DC2B3004D333054
:1022A0003320553120452569205325690050494484
:1022B000204175746F74756E65202A005049442D55
:1022C00044202A005049442D49202A005049442DD9
:1022D00050202A0020082046616374002008204D09
:1022E0006178002008204D696E004F6666004F6ED1
:1022F000004175746F74656D70005654726176207C
:102300004D696E00566D696E00566D61782045000E
:10231000566D6178205A00566D6178205900566DCF
:102320006178205800416D6178204500416D6178E9
:10233000205A00416D6178205900416D6178205824
:1023400000412D54726176656C00412D52657472A6
:1023500061637400416363656C004A756E63746900
:102360006F6E20446576004573746570732F6D6DD4
:10237000005A73746570732F6D6D005973746570B6
:10238000732F6D6D005873746570732F6D6D004100
:102390006476616E6365642053657474696E6773F7
:1023A000003F0043616E63656C00496E6974004DC7
:1023B00034323800496E697469616C697A65204508
:1023C0004550524F4D0046696C616D656E74005406
:1023D000656D70657261747572650043616E6365E9
:1023E0006C204F626A6563740053746570732F6D5F
:1023F0006D004A65726B00416363656C6572617460
:10240000696F6E0056656C6F63697479005365740B
:1024100020486F6D65204F66667365747300436F67
:102420006E66696775726174696F6E003F004E6514
:10243000787420506F696E7400446F6E65004E654D
:10244000787400486F6D696E672058595A003F00D4
:1024500043616E63656C204F626A656374004E4F22
:10246000005945530043616E63656C204F626A6595
:102470006374203D004D61696E00436D643A2053E2
:10248000746F7700436D643A204465706C6F790017
:10249000436D643A2053656C662D54657374004334
:1024A0006D643A2053572D4D6F646500436D643A57
:1024B00020526573657400426564004E6F7A7A6CD1
:1024C000650046616E20537065656400436F6E66FB
:1024D000696775726174696F6E004C6F6164205337
:1024E000657474696E677300526573746F726520EA
:1024F0006661696C736166650053746F7265205321
:10250000657474696E6773005072656865617420E4
:1025100041425320436F6E66005072656865617476
:1025200020504C4120436F6E66004F6666004F6E30
:102530000052756E6F75742053656E736F72004232
:102540004C546F7563680050726F6265205A204F5B
:10255000666673657400416476616E6365642053DA
:10256000657474696E6773004D61696E004D313931
:10257000305335350A4732380A4732390A4D34303C
:10258000300A4D313034533231350A4732380A4D32
:10259000313039533231350A4D34323053310A47F4
:1025A00031583130305931303046353030300A47CB
:1025B000315A300A4D3530300A4D313137205365AC
:1025C00074205A204F6666736574004D313036535F
:1025D0003132380A4D333033433853323135453098
:1025E000550A4D3530300A4D31313720504944209D
:1025F00054756E6520446F6E65004D31393053352A
:10260000350A4D313034533231350A4732380A47B2
:1026100032394C310A47312058313030593130305D
:1026200046353030300A47315A30004D3530300AA7
:102630004D3131372053657474696E67732053745C
:102640006F726564005072657020666F72205A2048
:1026500041646A757374005049442054756E650076
:1026600053657475700053746F726520536574748C
:10267000696E6773004D61696E004D3730322054CA
:102680002564004D36303020423020542564004D02
:10269000373032203B2564004D37303120542564DB
:1026A000004D373032004D373031004D363030205C
:1026B0004230004D61696E004F6666004F6E0052F9
:1026C000756E6F75742053656E736F7200507572FE
:1026D0006765206D6F726500436F6E74696E756516
:1026E00000524553554D45204F5054494F4E533A93
:1026F000005052494E54205041555345440020202B
:102700004E6F7A7A6C653A20005061726B696E6721
:102710002E2E2E0000005761697420666F720066CD
:10272000696C616D656E74206368616E67650074C5
:102730006F207374617274005761697420666F72E0
:102740000066696C616D656E7420756E6C6F616496
:1027500000004E6F7A7A6C652068656174696E67F7
:1027600000506C6561736520776169742E2E2E00B0
:1027700000507265737320627574746F6E00746FAD
:102780002068656174206E6F7A7A6C650000496E0E
:10279000736572742066696C616D656E7400616E3C
:1027A0006420707265737320627574746F6E007448
:1027B0006F20636F6E74696E756500576169742070
:1027C000666F720066696C616D656E74206C6F6116
:1027D000640000507265737320427574746F6E00EC
:1027E000746F20726573756D65207072696E740008
:1027F000005761697420666F72207072696E740090
:10280000746F20726573756D652E2E2E00005761F2
:10281000697420666F720066696C616D656E742004
:10282000707572676500003E2000256C642E256976
:102830006D00457874727564656420546F74616CC2
:10284000003E20004C6F6E67657374204A6F6220F3
:1028500054696D65003E2000546F74616C205072A5
:10286000696E742074696D6500436F6D706C65747A
:102870006564003A20005072696E7420436F756E73
:1028800074003A2000313530003A200035003A20FB
:10289000004245443A4154432031303447542D32AC
:1028A0000052756E617761792057617463683A20D0
:1028B0004F4E004D61782054656D70003331350006
:1028C0003A20004D696E2054656D700035003A2045
:1028D0000045313A204550434F53203130304B00B2
:1028E0005053550047656E65726963003A20005089
:1028F000726F746F636F6C00312E30003A200042AB
:1029000061756400323530303030003A2000437257
:1029100065616C69747933442052414D50530042D3
:10292000696C696E656172204C6576656C696E676D
:10293000004578747275646572730031003A200046
:1029400074696E796D616368696E657333642E6353
:102950006F6D00544D3344204352313056320032B3
:102960003031392D31302D323700322E305F44571F
:1029700035004D61726C696E005072696E746572DB
:1029800020537461747300546865726D6973746F59
:10299000727300426F61726420496E666F005072FC
:1029A000696E74657220496E666F004D61696E00D4
:1029B0003F004261636B0053746F70005072696E28
:1029C000742066726F6D204D65646961004D32310F
:1029D000004368616E6765204D656469610041620E
:1029E0006F7574205072696E746572004368616E11
:1029F00067652046696C616D656E74004C6576652F
:102A00006C696E6720546F6F6C7300436F6E6669FC
:102A10006775726174696F6E0054656D706572617F
:102A200074757265004D6F74696F6E0052657375D1
:102A30006D65205072696E740054756E6500537434
:102A40006F70205072696E7400506175736520500C
:102A500072696E74004E6F204D6564696100496E45
:102A6000666F2053637265656E003F005374617238
:102A700074205072696E740043616E63656C00501F
:102A800072696E740043616E6E6F7420656E74655A
:102A900072207375626469723A2000022E2E004D16
:102AA00061696E00536F667420456E6473746F7055
:102AB00073004D6F74696F6E004D38340044697354
:102AC00061626C6520537465707065727300473283
:102AD000380A4D343820503130004D34382050728F
:102AE0006F62652054657374004C6576656C204395
:102AF0006F726E6572730046616465204865696730
:102B00006874004F6666004F6E00426564204C6535
:102B100076656C696E67004732380A473239004C77
:102B20006576656C2042656400473238205A00485B
:102B30006F6D65205A00473238205900486F6D6527
:102B4000205900473238205800486F6D65205800E2
:102B5000473238004175746F20486F6D65004D61D4
:102B6000696E005072656865617420504C41204563
:102B70006E64005072656865617420504C4120425B
:102B8000656400507265686561742041425320425B
:102B90006564005072656865617420414253204548
:102BA0006E640054656D70657261747572650000C5
:102BB0000C0D00FE07022603BC017FFE08FE08FE86
:102BC00005080806000040F0C888889878100508B5
:102BD00008060000C0F88888888888F8050505067A
:102BE00000012030F830200508080600002070F8A9
:102BF00020202020E00509090600FF2070A8A8B8C1
:102C000088887020050606060001E08CEA8C8A0A96
:102C10000509090600FFF8A88888888888A8F805AB
:102C20000A0A0600FE205050505088A8A888700359
:102C3000030306000340A040FFFFFFFFFFFFFFFF6D
:102C4000FFFFFFFFFFFFFFFFFFFFFFFFFFFF000092
:102C5000000605FF010707060200808080808000D3
:102C600080030303060105A0A0A0050606060000D8
:102C700050F85050F8500509090600FF2070A8A030
:102C80007028A87020050707060000C8C81020405B
:102C9000989805070706000040A0A040A89068018A
:102CA00003030602058080800309090601FF204016
:102CB000408080804040200309090601FF80404099
:102CC00020202040408005070706000020A8702033
:102CD00070A8200505050600012020F82020020329
:102CE000030601FFC04080050101060003F802024F
:102CF00002060100C0C005070706000008101020EA
:102D0000404080050707060000708898A8C88870B2
:102D100003070706010040C040404040E0050707A8
:102D2000060000708808102040F80507070600001C
:102D3000F8081030088870050707060000103050AA
:102D400090F81010050707060000F880F0080888C2
:102D500070050707060000304080F088887005077E
:102D600007060000F80810102020200507070600BD
:102D700000708888708888700507070600007088D2
:102D80008878081060020505060100C0C000C0C0B8
:102D90000206060601FFC0C000C04080030505060C
:102DA00001012040804020050303060002F800F8DE
:102DB0000305050601018040204080050707060045
:102DC000007088102020002005070706000070888A
:102DD000B8A8B88070050707060000708888F888D2
:102DE0008888050707060000F04848704848F00545
:102DF0000707060000708880808088700507070636
:102E00000000F04848484848F0050707060000F869
:102E10008080F08080F8050707060000F88080F0C9
:102E20008080800507070600007088808098887081
:102E3000050707060000888888F888888803070740
:102E4000060100E04040404040E005070706000062
:102E5000381010101090600507070600008890A039
:102E6000C0A09088050707060000808080808080D1
:102E7000F805070706000088D8A88888888805070D
:102E8000070600008888C8A89888880507070600F4
:102E90000070888888888870050707060000F08819
:102EA00088F080808005070706000070888888A861
:102EB0009068050707060000F08888F0A090880554
:102EC00007070600007088807008887005070706ED
:102ED0000000F82020202020200507070600008899
:102EE0008888888888700507070600008888888891
:102EF00050502005070706000088888888A8A85039
:102F000005070706000088885020508888050707B5
:102F100006000088885020202020050707060000B2
:102F2000F80810204080F80309090601FFE08080BE
:102F30008080808080E005070706000080404020F8
:102F40001010080309090601FFE02020202020209E
:102F500020E0050303060005205088050101060056
:102F6000FEF8030303060105804020050505060061
:102F70000070087888780507070600008080F088D0
:102F80008888F005050506000070808088700507B8
:102F90000706000008087888888878050505060077
:102FA000007088F08070050707060000304840E098
:102FB0004040400507070600FE7088888878087042
:102FC0000507070600008080F088888888030707C7
:102FD0000601004000C0404040E00409090601FE2F
:102FE00010003010101010906005070706000080D8
:102FF000808890E09088030707060100C0404040A9
:103000004040E0050505060000D0A8A8A8A80505D1
:1030100005060000B0C88888880505050600007010
:10302000888888700507070600FEF0888888F08089
:10303000800507070600FE78888888780808050557
:1030400005060000B0C880808005050506000078F0
:10305000807008F00507070600002020F8202020D7
:103060001805050506000088888898680505050686
:10307000000088888850200505050600008888A87B
:10308000A850050505060000885020508805070750
:103090000600FE888888502040800505050600004F
:1030A000F8102040F80309090601FF204040408045
:1030B000404040200109090602FF80808080808016
:1030C0008080800309090601FF8040404020404085
:1030D000408005030306000248A890FF5072696E05
:1030E000742050617573656400436F6F6C646F7713
:1030F0006E005072656865617420414253005072E1
:10310000656865617420504C410046616E205370C3
:10311000656564203D00426564004E6F7A7A6C6597
:10312000004D61696E0050726F6265205A204F66D3
:103130006673657400466C6F770046616E2053704D
:10314000656564203D00426564004E6F7A7A6C6567
:10315000005370656564004D61696E002568753ABD
:1031600025303268750025303268753A253032686E
:103170007500256875642025303268753A2530322F
:103180006875002020202020202000202020200002
:103190001FE02010201020101020102020102010E0
:1031A00030300840048003001FE03FF03FF03FF064
:1031B0001FE01FE03FF03FF03FF00FC0078003002B
:1031C0003FFFF038007030FC3020FC1020781020D9
:1031D00030102C00D02E31D02F7BD02F7BD02E3131
:1031E000D02C00D020301020781020FC1030FC3083
:1031F0003800703FFFF03FFFF03800703186302319
:1032000087102787902F87D02F03D0203010207869
:10321000102078102030102F03D02F87D0278790D0
:103220002387103186303800703FFFF01FFFF81FF2
:10323000FFF8041040020820020820041040082073
:103240008010410010410008208004104000000060
:103250001FFFF81FFFF8FFFFFF8000018E00E19FB6
:1032600001F19381399F81F99F81F99FB9F98F28E5
:10327000F18038018000019FFFF99174999B06A9A4
:103280009B54A99B56A99B54999FFFF9FFFFFF4DA3
:10329000656469612052656D6F766564004D656493
:1032A000696120496E73657274656400544D3344DE
:1032B000204352313056322052656164792E0050DD
:1032C00072696E74696E672E2E2E0063616E63657F
:1032D0006C005072696E742041626F727465640094
:1032E0004469736D6973730055492041626F72744C
:1032F0006564004D323520500A4D323400526573FA
:10330000756D650055492050617573650050617594
:103310007365205072696E7400726573756D650017
:1033200000809D4300009B430000C8430000000054
:103330000000000000000000290A00206279746586
:10334000733B20637263200053657474696E677306
:103350002053746F726564202800454550524F4DCC
:10336000206461746173697A65206572726F722E70
:103370000A00290A002062797465733B2063726336
:1033800020002073746F7265642073657474696EB5
:103390006773207265747269657665642028002001
:1033A0002863616C63756C6174656429210A00206F
:1033B000213D2000454550524F4D20435243206D42
:1033C00069736D61746368202D202873746F726552
:1033D000642920002053697A653A2000496E6465AB
:1033E000783A2000204D61726C696E3D5637342961
:1033F0000A00454550524F4D2076657273696F6ED5
:10340000206D69736D617463682028454550524F83
:103410004D3D00454550524F4D20496E69746961DC
:103420006C697A65640A0048617264636F646564FC
:103430002044656661756C742053657474696E67A9
:1034400073204C6F616465640A000000FA43000059
:10345000FA4300002041000096420000A042000014
:10346000A0420000C8430000BA42DC050000DC05B1
:103470000000640000004B0000003A0A0020204DCC
:10348000363033200020440020204D343132205388
:103490000046696C616D656E742072756E6F75742F
:1034A0002073656E736F723A0A002055004C004617
:1034B000696C616D656E74206C6F61642F756E6CE4
:1034C0006F6164206C656E677468733A0A00205AF5
:1034D0000020590020204D3835312058005A2D50F9
:1034E000726F6265204F6666736574002044002029
:1034F000490020204D333034205000204400204922
:103500000020204D33303120500050494420736555
:103510007474696E67733A0A0020460020420020E6
:10352000480020204D3134352053004D61746572C0
:1035300069616C2068656174757020706172616D7D
:1035400065746572733A0A00205A00204A002020F0
:103550004732392057204900205A0020204D34326C
:10356000302053004175746F20426564204C6576AD
:10357000656C696E673A0A00205A002059002020C5
:103580004D323036205800486F6D65206F66667387
:1035900065743A0A00204A0020540020530020207D
:1035A0004D323035204200204A3C6A756E635F64BC
:1035B00065763E00416476616E6365643A20423C04
:1035C0006D696E5F7365676D656E745F74696D6557
:1035D0005F75733E20533C6D696E5F66656564720E
:1035E0006174653E20543C6D696E5F7472617665EE
:1035F0006C5F66656564726174653E0020540020EE
:10360000520020204D323034205000416363656CFD
:1036100065726174696F6E2028756E6974732F739B
:1036200032293A20503C7072696E745F6163636541
:103630006C3E20523C726574726163745F616363B7
:10364000656C3E20543C74726176656C5F616363A7
:10365000656C3E0A00204500205A002059002020B9
:103660004D3230312058004D6178696D756D2041C3
:103670006363656C65726174696F6E2028756E692D
:1036800074732F7332293A0A00204500205A002013
:10369000590020204D3230332058004D6178696D3B
:1036A000756D206665656472617465732028756E3A
:1036B0006974732F73293A0A00537465707320700C
:1036C000657220756E69743A0A0020204D323030E0
:1036D0002044300A0020204D323030204400204465
:1036E000697361626C65640A0046696C616D656E40
:1036F000742073657474696E67733A0020204D31CD
:1037000034392043203B20556E69747320696E2044
:1037100043656C736975730A0020286D6D2900205C
:1037200020473231202020203B20556E69747320C1
:10373000696E206D6D00486F6D696E672046616926
:103740006C6564006F70656E00545249474745527E
:103750004544003A200066696C616D656E74007ABC
:103760005F6D696E00795F6D696E00785F6D696E7F
:10377000005265706F7274696E6720656E64737451
:103780006F70207374617475730A00205A3A0020B8
:10379000593A0020436F756E7420583A0020453A1C
:1037A00000205A3A0020593A00583A0020746F6FAE
:1037B000206C6F6E6720657874727573696F6E2008
:1037C00070726576656E7465640A0020636F6C6460
:1037D00020657874727573696F6E20707265766596
:1037E0006E7465640A000000000000000000000024
:1037F000000000004842000048420000804057613D
:10380000726E696E673A20486F6D696E6720427507
:103810006D702044697669736F72203C20310A0014
:103820000202040000A0400000A040000000400090
:10383000809D4300009B430000C843FFFFFF000042
:1038400000010000000100008000555555000000F7
:10385000400033333300AAAA2A0049922400000012
:103860002000C7711C0099991900D14517005555C2
:1038700015003BB113002449120011111100000082
:1038800010000F0F0F00E3380E0043790D00CCCC71
:103890000C00C3300C00E8A20B0064210B00AAAAA4
:1038A0000A00703D0A009DD80900427B090092245D
:1038B0000900DCD3080088880800104208000000D6
:1038C0000800F0C107008787070075500700711CCA
:1038D00007003EEB0600A1BC060069900600666684
:1038E0000600703E06006118060017F4050074D14A
:1038F00005005BB00500B2900500627205005555E9
:10390000050078390500B81E0500050505004EECD8
:10391000040087D40400A1BD040090A704004992CC
:103920000400C17D0400EE690400C756040044444D
:1039300004005C320400082104004110040000006F
:1039400004003FF00300F8E0030026D20300C3C3E5
:103950000300CCB503003AA803000A9B0300388E8D
:103960000300C08103009F750300D0690300505E0F
:1039700003001D53030034480300913D030033331B
:10398000030016290300381F030097150300300CAD
:103990000300030303000BFA020049F10200BAE836
:1039A00002005CE002002DD802002DD0020059C8B0
:1039B0000200B0C0020031B90200DAB10200AAAAC6
:1039C0000200A0A30200BC9C0200FA9502005C8FDA
:1039D0000200DF88020082820200457C0200277616
:1039E000020027700200436A02007C640200D05E7D
:1039F00002003F590200C8530200FFFDFCFAF8F62E
:103A0000F4F2F0EEECEAE9E7E5E3E1E0DEDCDAD956
:103A1000D7D5D4D2D0CFCDCBCAC8C7C5C3C2C0BFFB
:103A2000BDBCBAB9B7B6B4B3B2B0AFADACAAA9A871
:103A3000A6A5A4A2A1A09E9D9C9A999897959493BF
:103A400092908F8E8D8B8A898887868483828180ED
:103A50007F7E7D7B7A797877767574737271706FFB
:103A60006E6D6C6B6A696867666564636261605FEE
:103A70005E5D5C5B5A5958585756555453525150D5
:103A8000504F4E4D4C4B4A4A4948474646454443A1
:103A9000424241403F3E3E3D3C3B3B3A393838375D
:103AA000363535343332323130302F2E2E2D2C2B0B
:103AB0002B2A2929282727262525242323222121AB
:103AC00020201F1E1E1D1C1C1B1B1A19191818173D
:103AD0001616151514131312121111100F0F0E0EC6
:103AE0000D0D0C0C0B0A0A09090808070706060544
:103AF0000504040303020201000024F4D43050C37F
:103B00008E20C2A24017828B7011127A910D816CA7
:103B1000D90AA861E108C7586607615143061E4BE0
:103B20005D05C145A7041A411104093D9803713987
:103B300031034036DB0265339102D4305402802ECB
:103B40001D02632CEE01752AC501B028A0011027C3
:103B500081018F2564012B244B01E0223401AC212B
:103B60001F018D200D01801FFC00841EED00971D9C
:103B7000DF00B81CD200E61BC600201BBC00641A84
:103B8000B200B219A8000A19A0006A189900D1174A
:103B9000910040178B00B516840031167E00B315D6
:103BA00079003A157300C7146F0058146A00EE13B9
:103BB00066008813630025135E00C7125B006C1259
:103BC000570015125400C111510070114F002111FE
:103BD0004B00D61049008D104700461044000210DB
:103BE0004200C00F4000800F3E00420F3C00060F15
:103BF0003B00CB0E3800930E37005C0E3500270ECD
:103C00003400F30D3200C10D3100900D3000600D15
:103C10002E00320D2D00050D2C00D90C2B00AE0C02
:103C20002900850C29005C0C2700350C27000E0CA0
:103C30002600E80B2400C40B2400A00B23007D0BFE
:103C400023005A0B2100390B2100180B2000F80A21
:103C50001F00D90A1E00BB0A1E009D0A1D00800A13
:103C60001D00630A1C00470A1B002C0A1B00110AD6
:103C70001A00F7091A00DD091900C4091900AB0977
:103C80001900920917007B091800630917004C09F5
:103C9000160036091600200916000A091500F50855
:103CA0001500E0081400CC081400B8081400A4089B
:103CB0001400900813007D0812006B0813005808C8
:103CC00012004608120034081100230811001208DF
:103CD000110001081100F0071000E0071000D007E4
:103CE0001000C0071000B0070F00A10710009107D7
:103CF0000E0083070F0074070F0065070E005707BB
:103D00000E0049070E003B070D002E070E0020078E
:103D10000D0013070D0006070D00F9060C00ED0657
:103D20000D00E0060C00D4060C00C8060C00BC0612
:103D30000C00B0060C00A4060B0099060C008D06C2
:103D40000B0082060B0077060B006C060B00610669
:103D50000A0057060B004C060A0042060A00380605
:103D60000A002E060A0024060A001A060A00100697
:103D7000090007060A00FD050900F4050900EB0526
:103D80000900E2050900D9050900D0050900C705A9
:103D90000900BE050900B5050800AD050800A50528
:103DA00009009C050800940508008C05080084059E
:103DB00008007C050800740508006C05070065050F
:103DC00008005D050700560508004E050700470579
:103DD00007004005080038050700310507002A05DF
:103DE0000700230507001C050600160507000F0540
:103DF00007000805060002050700FB040600F5049D
:103E00000700EE040600E8040600E2040700DB04F5
:103E10000600D5040600CF040600C9040600C3044A
:103E20000600BD040600B7040600B1040500AC049A
:103E30000600A6040600A00405009B0406009504E5
:103E40000500900406008A0405008504050080042E
:103E500006007A04050075040500700405006B0473
:103E6000050066040500610405005C0405005704B4
:103E70000500520405004D040500480405004304F4
:103E800005003E0404003A04050035040500300432
:103E900004002C04050027040400230405001E046C
:103EA00004001A04040016040500110404000D04A3
:103EB0000400090405000404040000040400FC03D9
:103EC0000400F8030400F4030400F0030400EC030E
:103ED0000400E8030400E4030400E0030400DC033E
:103EE0000400D8030400D4030400D0030400CC036E
:103EF0000400C8030300C503030024F404D9201BF5
:103F0000C40C5C0E9804C4095F0265077101F405D6
:103F1000F900FB04B30048048700C103690058039B
:103F2000550003034500BE023A00840231005302EB
:103F30002A002902250004022000E4011C00C80117
:103F40001900AF01170098011400840113007101DA
:103F500010006101100051010E0043010D003601F7
:103F60000B002B010B0020010B00150109000C01B7
:103F7000090003010800FB000800F3000800EB0043
:103F80000700E4000600DE000600D8000600D200AC
:103F90000600CC000500C7000500C2000500BD00FA
:103FA0000400B9000400B5000400B1000400AD0035
:103FB0000400A9000400A5000300A20003009F0064
:103FC00004009B000300980003009500020093008A
:103FD0000300900003008D0002008B0003008800A6
:103FE00002008600020084000300810002007F00BE
:103FF00002007D0002007B000200790002007700D1
:1040000001007600020074000200720001007100DD
:1040100002006F0002006D0001006C0002006A00E7
:1040200001006900020067000100660001006500F0
:1040300001006400020062000100610001006000F4
:1040400001005F0002005D0001005C0001005B00F8
:1040500001005A00010059000100580001005700FA
:1040600001005600010055000100540001005300FA
:1040700000005300010052000100510001005000F7
:1040800001004F0001004E0000004E0001004D00F5
:1040900001004C0001004B0000004B0001004A00F1
:1040A00001004900010048000000480001004700ED
:1040B00001004600000046000100450000004500E8
:1040C00001004400010043000000430001004200E1
:1040D00000004200010041000000410001004000DA
:1040E00001003F0000003F0001003E0000003E00D4
:1040F00001003D0000003D0001003C0000003C00CC
:1041000000003C0001003B0000003B0001003A00C1
:1041100000003A00010039000000390001003800B9
:1041200000003800000038000100370000003700B0
:1041300001003600000036000000360001003500A6
:10414000000035000000350001003400000034009C
:104150000000340001003300000033000000330091
:104160000100320000003200000032000100310086
:10417000000031000000310001003000000030007C
:104180000000300001002F0000002F0000002F0071
:1041900000002F0001002E0000002E0000002E0065
:1041A00001002D0000002D0000002D0000002D005A
:1041B00001002C0000002C0000002C0000002C004E
:1041C00001002B0000002B0000002B0000002B0042
:1041D00001002A0000002A0000002A0000002A0036
:1041E000010029000000290000002900000029002A
:1041F000000029000100280000002800000028001D
:10420000000028000000280001002700000027000F
:104210000000270000002700000027000100260002
:1042200000002600000026000000260000002600F6
:1042300001002500000025000000250000002500E9
:1042400000002500000025000100240000002400DB
:1042500000002400000024000000240001002300CE
:1042600000002300000023000000230000002300C2
:1042700000002300000023000100220000002200B3
:1042800000002200000022000000220000002200A6
:104290000100210000002100000021000000210099
:1042A000000021000000210000002100010020008A
:1042B000000020000000200000002000000020007E
:1042C00000002000000020000000200001001F006E
:1042D00000001F0000001F0000001F0000001F0062
:1042E00000001F0000001F0001001E0000001E0053
:1042F00000001E0000001E000000393000003325C1
:10430000000087190000B00F0000DB080000BD04AA
:104310000000740200003F01000042656400453166
:1043200000626564002C2073797374656D2073746A
:104330006F7070656421204865617465725F4944DF
:104340003A200048656174696E67206661696C6532
:104350006400546865726D616C2052756E6177619E
:10436000790048656174696E67204661696C6564AF
:104370000048656174696E67206661696C656400F8
:10438000546865726D616C2052756E617761790059
:104390001000C90210012C01400122017001180116
:1043A000B0010E01F00104015002FA00B002F00069
:1043B0003003E600D003DC009004D2007005C80092
:1043C000A006BE000008B400B009AA00D00BA000EF
:1043D000600E960060118C00001582002019780094
:1043E000C01D6E00A0226400B0275A00902C50001F
:1043F00000314600E0343C0010383200903A28008A
:10440000603C1E00A03D1400803E0A00203F0000DA
:10441000544845524D414C2052554E415741590048
:10442000546865726D616C2052756E6177617900B8
:104430004572723A204D415854454D50004D4158F7
:1044400054454D5020747269676765726564004514
:1044500072723A204D494E54454D50004D494E54CC
:10446000454D5020747269676765726564000A0A79
:104470000020205A5F4D494E3A002020595F4D4997
:104480004E3A002020585F4D494E3A004D383420B6
:10449000582059205A204500202F002042403A0041
:1044A00020403A0020573A0020573A00496E766182
:1044B0006C69642065787472756465720A007C3C6E
:1044C0003E5E2B3D3F2F5B5D3B2C2A225C00700142
:1044D0002C0190012701B0012201C0011D01F00152
:1044E00018011002130130020E016002090190024E
:1044F0000401C002FF000003FA004003F50080033E
:10450000F000D003EB002004E6007004E100E004BA
:10451000DC004005D700C005D2004006CD00D00623
:10452000C8008007C3003008BE00F008B900C00909
:10453000B400B00AAF00B00BAA00D00CA500000E6A
:10454000A000500F9B00C010960050129100001464
:104550008C00C0158700B0178200B0197D00D01BF9
:104560007800001E730040206E0090226900F02445
:10457000640040275F0090295A00E02B5500102E60
:10458000500020304B0010324600E033410090359F
:104590003C001037370070383200A0392D00B03A97
:1045A0002800A03B2300603C1E00103D1900903DF8
:1045B0001400103E0F00703E0A00C03E0500003F90
:1045C0000000403FFBFF803FF6FFC03FF1FF43612B
:1045D0006E6E6F74206F70656E20737562646972A1
:1045E000200053442063617264206F6B0A006F7077
:1045F000656E526F6F74206661696C65640A00763F
:104600006F6C756D652E696E6974206661696C6585
:10461000640A00534420696E6974206661696C0AFB
:10462000004D3234004D32332025730057726974C7
:10463000696E6720746F2066696C653A20002E0AE7
:10464000006F70656E206661696C65642C20466938
:104650006C653A20002E0A006F70656E20666169F5
:104660006C65642C2046696C653A200046696C656F
:104670002073656C65637465640A002053697A650C
:104680003A200046696C65206F70656E65643A205B
:1046900000667265736800646F696E670020666902
:1046A0006C653A20004E6F772000454E44205355EC
:1046B00042524F5554494E450A002220706F7300F4
:1046C0002220706172656E743A2200535542524F37
:1046D0005554494E452043414C4C207461726765E6
:1046E000743A2200747279696E6720746F20636176
:1046F0006C6C207375622D67636F64652066696CEE
:104700006573207769746820746F6F206D616E79AE
:10471000206C6576656C732E204D4158206C657653
:10472000656C2069733A310A005344207072696ED7
:1047300074696E67206279746520004E6F7420532F
:1047400044207072696E74696E670A00FD55555594
:1047500055555FFFFFFFFFFFFFFFFFFFFE0000005B
:1047600000003FFFFFFFFFFFFFFFFFFFFD0000070F
:10477000FFFFFFFFFFFFFFFFFFFFFFFFFE07C0057B
:1047800055555555555FFFFFFFFFFFFFFC0A2006FB
:1047900000000000003FFFFFFFFFFFFFFE141005B9
:1047A000000007FFFFFFFFFFFFFFFFFFFC280806D9
:1047B00007C00555555555555FFFFFFFFE540404CE
:1047C0000A200600000000003FFFFFFFFC60040617
:1047D000141005000007FFFFFFFFFFFFFE50040459
:1047E00028080607C00555555555555FFC60040659
:1047F0005404040A200600000000003FFE54041C7C
:1048000060040614100500000000001FFC28082E9C
:1048100050040428080607C00001F03FFE1410549D
:104820006004065404040A200002081FFC0A2066E3
:1048300054041C60040614100005043FFE07C05415
:1048400028082E5004042808000A021FFC00002E2D
:1048500014105460040654040015013FFE00001CAF
:104860000A206654041C60040018011FFC000006A6
:1048700007C05428082E50040014013FFE00000415
:1048800000002E14105460040018011FFCFFFFFEEE
:1048900000001C0A206654041C15013FFED5555427
:1048A00000000607C05428082A0A021FFC8410468C
:1048B00000000400002E14105105043FFEC41044F3
:1048C000FFFFFE00001C0A206102881FFC841046C6
:1048D000D5555400000607C05101F03FFE84104436
:1048E00084104600000400002A00001FFCC410468B
:1048F000C41044FFFFFE00001C00003FFE84104473
:10490000841046D5555400000000001FFCD55556B4
:1049100084104484104600000000003FFCFFFFFCB0
:10492000C41046C41044FFFFFFFFFF9FFE000006B7
:10493000841044841046D555555555BFFD555554E2
:10494000D5555684104484104104109FFFFFFFFC8E
:10495000FFFFFCC41046C410410411BFFFFFFFFE5F
:1049600000000684104484104104109FFFFFFFFDE7
:10497000555554D5555684104104109FFFFFFFFF35
:10498000FFFFFCFFFFFCC410410411BFFFFFFFFF4E
:10499000FFFFFE00000684104104109FFFFFFFFF91
:1049A000FFFFFD555554D555555555BFFFFFFFFF2A
:1049B000FFFFFFFFFFFCFFFFFFFFFF9FFFFFFFFF6A
:1049C000FFFFFFFFFFFE00000000003FFFFFFFFFB3
:1049D000FFFFFFFFFFFD55555555555FFFFFFFFFDB
:1049E000FFFFFFFFFFFFFFFFFFFFFFFFFFFFFFFFD7
:1049F000FFFFFFFFFFFFFFFFFFFFFFFFFFFFFFFFC7
:104A0000FFFFFFFFFFFFFFFFFFFFFFFFFFFFFFFFB6
:104A1000FFFFFFFFFFFFFFFFFFFFFFFFE02EFB7D1C
:104A2000FBFBCFC1DFBB3EC0E1FE3C1FFDEE7B398F
:104A3000F9F3CF9EDFBB3EDFDEFCDDE7FDEE3BBBE7
:104A4000F9EBD7BF5FBB5EDFDEFDEDF7FDEEBBD35D
:104A5000FAEBB73FDFBB4EDFDFFFCDF3FDEEDBC789
:104A6000FAEBBB7FC03B6EC0E3FF1DF3FDEECBEF67
:104A7000FADBBB7FDFBB66DFF8FFCDF3FDEEEBEFCC
:104A8000FB5B033F5FBB76DFFE7FEDF3FDEEF3EFF5
:104A9000FB5B79BEDFBB7ADFDE7DEDF7FDEEF3EF8A
:104AA000FBBAFD9EDFBB7CDFDEFDCDE7FDEEFBEF5D
:104AB000FBBAFDC1DFBB7EC0E0FE1C1F68747470D2
:104AC0003A2F2F6D61726C696E66772E6F72670078
:104AD000322E305F445735001FFFFFFFFFFFFF609E
:104AE0000000000001FF400000000000FF80000007
:104AF0000000007F83CF00000C303F87FF80000C58
:104B0000301F867980000C000F8C30C7838C30E713
:104B10008C30CFC7CC31F38C30DCECEC33B98C303B
:104B2000D86C6C33198C30D06C0C33198C30D86C39
:104B30000C33198C30DC6C0E3B198C30CF7C079F0A
:104B4000198C30C77C038F19400000000000026000
:104B50000000000000061FFFFFFFFFFFF8202050AD
:104B60006C616E6E657242756666657242797465D7
:104B7000733A20002046726565204D656D6F72792D
:104B80003A2000436F6D70696C65643A2044656338
:104B900020313420323031390A00204C61737420C6
:104BA000557064617465643A20323031392D31308A
:104BB0002D3237207C20417574686F723A20546919
:104BC0006E794D616368696E657333440A00322EF5
:104BD000305F4457350A004D61726C696E00205396
:104BE0006F6674776172652052657365740A002080
:104BF0005761746368646F672052657365740A0057
:104C00002042726F776E206F7574205265736574E1
:104C10000A002045787465726E616C205265736578
:104C2000740A00506F77657255700A007374617270
:104C3000740A006175746F25632E67004732385817
:104C400059006572726F722077726974696E67209D
:104C5000746F2066696C650A00446F6E652073612D
:104C600076696E672066696C652E0A004D323900E0
:104C7000456E6473746F707300255320256320257F
:104C80006320256320256300205A3A0020593A000A
:104C900020583A00656E6473746F7073206869748D
:104CA0003A200000002100240027002A002D0030B7
:104CB00000330001010000040107010A0100002285
:104CC00000250028002B002E0031003400020100D6
:104CD00000050108010B0100002000230026002927
:104CE000002C002F00320000010000030106010922
:104CF0000105050505070508080808020202020A61
:104D00000A0808040404040101010101010101036E
:104D100003030303030303040707070C0C0C0C0C29
:104D20000C0C0C0202020206060606060606060B1C
:104D30000B0B0B0B0B0B0B01021020200808102093
:104D40004010204080020102010804020101020417
:104D500008102040808040201008040201800402D6
:104D6000018040201008040201080402010102042D
:104D70000810204080010204081020408000000A32
:104D80000B02090C0D0E08070304010000000000CF
:104D90000000000000000000000000000000000013
:104DA00000000000000000000012111000000000D0
:104DB00000000000000000000000000000000000F3
:104DC0000000004D6F76652025736D6D004D6F7688
:104DD0006520302E316D6D004D6F766520316D6D23
:104DE000004D6F76652031306D6D004D6F7665201A
:104DF0004178697300486F74656E6420746F6F202A
:104E0000636F6C64004578747275646572004D6FF1
:104E10007665205A004D6F76652059004D6F766596
:104E20002058004368616E67652046696C616D6556
:104E30006E7400556E6C6F61642046696C616D65BF
:104E40006E74004C6F61642046696C616D656E74B0
:104E5000005072656865617420414253005072656C
:104E60006865617420504C410050726568656174DA
:104E700020437573746F6D004261636B00507269FB
:104E80006E742066726F6D204D65646961005072AA
:104E90006F62696E67204661696C65640A005072D2
:104EA0006F62696E67204661696C656400205A3ADA
:104EB000200020593A200042656420583A200048DA
:104EC0006F6D652025732573257320466972737491
:104ED00000626567696E00436F6E74696E75650088
:104EE00044697361626C6552756E6F7574005075BC
:104EF0007267654D6F72650050617573656400433C
:104F00006F6E74696E7565004C6F61642046696CE4
:104F1000616D656E74205400496E7365727420660D
:104F2000696C616D656E7420616E642073656E647A
:104F3000204D3130380A00220A00556E6B6E6F77B3
:104F40006E20636F6D6D616E643A20220020746F75
:104F50006F206C6F6E6720657874727573696F6E01
:104F60002070726576656E7465640A0020636F6CEC
:104F70006420657874727573696F6E2070726576DF
:104F8000656E7465640A00204500205A00205900AF
:104F9000204D39322058002E0A006F70656E206651
:104FA00061696C65642C2046696C653A2000706FFD
:104FB0007765726F666600506C6561736520526537
:104FC000736574005052494E5445522048414C5428
:104FD00045440025533A202553004B494C4C454449
:104FE0002E2000005072696E7465722068616C74C6
:104FF00065642E206B696C6C28292063616C6C657C
:1050000064210A009E00A00011241FBECFEFD1E250
:10501000DEBFCDBF00E00CBF13E0A0E0B2E0E8E4EB
:10502000F3EE02E00BBF02C007900D92A23DB10764
:10503000D9F727E1A2EDB3E001C01D92A33AB20770
:10504000E1F718E2C3E0D8E200E006C021970109C9
:10505000802FFE010F940E71C230D10780E0080747
:10506000A9F70F94A65B0D9493710C940000282F60
:105070009091F204833021F495FD0FC094FD0FC090
:10508000892F90E0B0E0A0E004C0B695A795979571
:1050900087952A95D2F78170089581E0089580E080
:1050A0000895082E000C990BFC01EF50F34BE4918E
:1050B000EE2391F0F0E0EE0FFF1FE952F34BA591C4
:1050C000B4912C91895C924BFC018491282381E05E
:1050D00090E021F480E0089580E090E00895082EAB
:1050E000000C990BFC01EF50F34BE491F0E0EE0F54
:1050F000FF1FED55F34BA591B4912C91895C924B18
:10510000FC018491822391E009F490E0892F0895B5
:10511000CF92DF92EF92FF92CF93DF93EC016A017F
:105120007B0127E137EB41ED58EBCB01B6010F9442
:10513000277087FD23C023E030E04BE953E4C7012B
:10514000B6010F9479671816CCF0C880D980EA8030
:10515000FB8027E137EB41ED58EBC701B6010F9417
:10516000277087FD0BC0C1E023E030E84DE953E430
:10517000C701B6010F94796718160CF4C0E08C2FA4
:10518000DF91CF91FF90EF90DF90CF9008952F9215
:105190003F924F925F926F927F928F929F92AF92C7
:1051A000BF92CF92DF92EF92FF920F931F93CF9314
:1051B000DF93CDB7DEB72E970FB6F894DEBF0FBEE4
:1051C000CDBFE82ED62E042F122F282F30E03C879B
:1051D0002B87462F50E05A87498765E0F62EF29ECE
:1051E000C001F39E900D11249E878D87FA01E80F70
:1051F000F91FEE0FFF1FEE0FFF1FEA5DF94F6081F1
:105200007181828193819B01AC010F94AF708823DF
:1052100009F434C1E00E612F6D0DFE9CF0011124E4
:10522000A985BA85AE0FBF1FAA0FBB1FAA0FBB1F50
:10523000AA5DB94FAC901196BC9011971296CC9084
:1052400012971396DC90E00EFE9CA0011124A98514
:10525000BA85A40FB51FAA0FBB1FAA0FBB1FAA5D5B
:10526000B94FEC901196FC90119712960C911297F1
:1052700013969C90862F90E0AD85BE85A80FB91F30
:10528000AA0FBB1FAA0FBB1FAA5DB94F8C90119626
:105290007C90119712966C90129713965C90610F08
:1052A00070E0AD85BE85A60FB71FAA0FBB1FAA0F62
:1052B000BB1FAA5DB94F4C9011963C901197129666
:1052C0001C91129713962C90E80FF91FEE0FFF1FF9
:1052D000EE0FFF1FEA5DF94FB081B98321812A8368
:1052E00032813B8383818C83FA01E60FF71FEE0F37
:1052F000FF1FEE0FFF1FEA5DF94F90819D83A18193
:10530000AE83B281BF83238128879701402F592D17
:10531000B701802F992D0F94AF70882321F0E12CD5
:10532000F12C00E0912C9501A601B501C6010F9466
:10533000AF70882319F05701C02ED92C242D332D9E
:10534000412F522D642D732D812F922D0F94AF700C
:10535000882321F0412C312C10E0212C282D372DD1
:10536000462D552D682D772D862D952D0F94AF70D8
:10537000882321F0842C732C612E522C2D813E81A8
:105380004F8158856D817E818F8198850F94AF7094
:10539000882321F01D821E821F82188629813A816E
:1053A0004B815C8169817A818B819C810F94AF7084
:1053B000882341F03D8139834E814A835F815B833D
:1053C00088858C8385E0EB85FC858E9FD0018F9F3F
:1053D000B00D112429853A85A20FB31FAA0FBB1F58
:1053E000AA0FBB1FAA5DB94FBA87A9879501A6016D
:1053F000B501C6010F94016E9701402F592D0F94EE
:10540000006E6B017C01282D372D462D552D682D02
:10541000772D862D952D0F94016E242D332D412F40
:10542000522D0F94006E9B01AC01C701B6010F9481
:10543000016E6B017C0129813A814B815C8169811C
:105440007A818B819C810F94016E2D813E814F81E9
:1054500058850F94006E9B01AC01C701B6010F94F3
:10546000016E20E030E040E450E40F94DD6EA98549
:10547000BA856D937D938D939C9313972E960FB65B
:10548000F894DEBF0FBECDBFDF91CF911F910F917A
:10549000FF90EF90DF90CF90BF90AF909F908F9054
:1054A0007F906F905F904F903F902F900895109253
:1054B000E10A80911A0290911B02A0911C02B09106
:1054C0001D028093C1069093C206A093C306B093B9
:1054D000C4060895809315028032B8F590919C051A
:1054E000891724F091E0980F90939C0540919805BE
:1054F0005091990560919A0570919B05082E04C002
:1055000076956795579547950A94D2F741704093E1
:10551000E91087FD1DC0082E000C990B01969F9382
:105520008F9389E99AE09F938F9389EA9AE09F93FA
:105530008F931F920F94C30B8DB79EB707960FB62C
:10554000F8949EBF0FBE8DBF08951092E910E1CF71
:105550000D94890BCF92DF92EF92FF920F931F93DE
:10556000CF93DF936B017A01EC01CC51DC4F2881A2
:105570003CE0389F8001399F100D112427FF24C083
:10558000FB011182108288818F5F88838881980156
:10559000280F311D87FD3A95C90120917A14F60133
:1055A0002817190629F024F088818C300CF43CC0AF
:1055B00080819181049680349C4908F475C0F6017D
:1055C00080819181049672C088819801280F311DD5
:1055D00087FD3A95C90120917A142817190699F286
:1055E00094F28881A801480F511D87FD5A95FA0150
:1055F000EE0FFF1FE40FF51FE25FFB4E808187FF78
:10560000C2CF8881F801E80FF11D87FDFA95CF011F
:10561000EE0FFF1FE80FF91FE25FFB4E808160E095
:105620008F770F94D247AFCF808191812881A801D5
:10563000420F511D27FD5A959A01FA01EE0FFF1FE7
:10564000E20FF31FE25FFB4E21813281820F931F35
:10565000F7019183808388819801280F311D87FD90
:105660003A95F901EE0FFF1FE20FF31FE25FFB4EC9
:10567000808187FF20C08881080F111D87FD1A9542
:10568000F801EE0FFF1FE00FF11FE25FFB4E80817C
:1056900061E08F77DF91CF911F910F91FF90EF9095
:1056A000DF90CF900D94D24780E49CE9F70191837D
:1056B00080838FEF8883DF91CF911F910F91FF90AF
:1056C000EF90DF90CF9008958091E1049091E204F3
:1056D000009731F04AE050E070E060E00D947864AB
:1056E00060E070E0CB010895EFDF97FD0AC0ECDFCA
:1056F0006F3F71058105910509F02CF4E5DF862FD8
:10570000089580E008958FEF0895DEDFCB010895BE
:10571000FF920F931F93CF93DF931F92CDB7DEB706
:10572000F82E0CE217E041E050E0B801CE010196FE
:105730000F94AD6689818F1108C081E00F90DF91D1
:10574000CF911F910F91FF9008950F5F1F4F87E03A
:105750000534180741F780E0F1CF8091E104909182
:10576000E204009731F04AE050E070E060E00D9410
:10577000A56560E070E0CB0108954F925F926F9253
:105780007F928F929F92AF92BF92CF92DF92EF92D1
:10579000FF92CF93DF9300D000D01F921F92CDB71E
:1057A000DEB79E838D83DB01CD90DD90ED90FC9084
:1057B0008091D30A9091D40AA091D50AB091D60ACB
:1057C00089839A83AB83BC839C01AD01C701B60179
:1057D0000F94006E2B013C01AD81BE818D909D9098
:1057E000AD90BC908091CF0A9091D00AA091D10A3F
:1057F000B091D20A8D839E83AF83B88727E137EBC0
:1058000041ED58EBC301B2010F94277087FDD0C062
:1058100023E030E04BE953E4C301B2010F94796710
:1058200018160CF4C5C02D813E814F815885C501E5
:10583000B4010F94006E2B013C0127E137EB41EDE1
:1058400058EB0F94277087FDB3C023E030E84DE993
:1058500053E4C301B2010F94796718160CF4A8C081
:1058600020E030E0A9016D817E818F8198850F94C1
:10587000016E2B013C0120E030E040E450E40F9445
:10588000796787FF05C0412C512C30E4632E762CBC
:1058900027E137EB41ED58E3C301B2010F94006EED
:1058A0009B01AC01C501B4010F94277087FD80C036
:1058B00020E030E84DE953E46D817E818F81988549
:1058C0000F94016E2B013C0120E030E04CE953E4E1
:1058D0000F942770181634F4412C512C2CE9622EA9
:1058E00023E4722E27E137EB41ED58E3C301B20107
:1058F0000F94016E9B01AC01C501B4010F9479674F
:1059000018160CF455C020E030E0A90169817A81B5
:105910008B819C810F94016E4B015C0120E030E093
:1059200040EE51E40F94796787FF06C0812C912CDB
:1059300090EEA92E91E4B92E27E137EB41ED58E323
:10594000C501B4010F94006E9B01AC01C701B60103
:105950000F94277087FD2CC020E030E04BE953E422
:1059600069817A818B819C810F94016E4B015C016E
:1059700020E030E04DE853E40F942770181634F41B
:10598000812C912C8DE8A82E83E4B82E27E137EBEB
:1059900041ED58E3C501B4010F94016E9B01AC01C8
:1059A00091E09983C701B6010F94796718160CF43A
:1059B0001982898128960FB6F894DEBF0FBECDBF3D
:1059C000DF91CF91FF90EF90DF90CF90BF90AF909D
:1059D0009F908F907F906F905F904F9008952F923F
:1059E0003F924F925F926F927F928F929F92AF926F
:1059F000BF92CF92DF92EF92FF921F93CF93DF93EC
:105A000000D01F92CDB7DEB74A011901FC014080DA
:105A1000518062807380FB01C080D180E280F3807E
:105A20002091E80A3091E90A4091EA0A5091EB0A84
:105A3000C301B2010F94796781110EC011E0A70173
:105A400096016091EC0A7091ED0A8091EE0A9091B6
:105A5000EF0A0F947967811110E080E1E8EEFAE037
:105A6000A2EBBAE001900D928A95E1F7F4018080F3
:105A70009180A280B38020910A0230910B02409164
:105A80000C0250910D02C501B4010F94796788236F
:105A900079F18092BA0A9092BB0AA092BC0AB092A5
:105AA000BD0A80920A0290920B02A0920C02B09260
:105AB0000D0220E030E040E05FE36091231370913D
:105AC000241380912513909126130F94DE67698328
:105AD0007A838B839C83CE0101960E94D6FB80E162
